{
  "address": "0xA55C8345173C98b69cd146BC5ef1EfE1C720eD5c",
  "abi": [
    {
      "inputs": [
        {
          "internalType": "contract IUniswapV2Router",
          "name": "_router",
          "type": "address"
        }
      ],
      "stateMutability": "nonpayable",
      "type": "constructor"
    },
    {
      "anonymous": false,
      "inputs": [
        {
          "indexed": false,
          "internalType": "uint256",
          "name": "lockId",
          "type": "uint256"
        },
        {
          "indexed": true,
          "internalType": "address",
          "name": "provider",
          "type": "address"
        },
        {
          "indexed": true,
          "internalType": "contract IERC20",
          "name": "tokenA",
          "type": "address"
        },
        {
          "indexed": true,
          "internalType": "contract IERC20",
          "name": "tokenB",
          "type": "address"
        },
        {
          "indexed": false,
          "internalType": "uint256",
          "name": "liquidity",
          "type": "uint256"
        },
        {
          "indexed": false,
          "internalType": "uint256",
          "name": "unlocktime",
          "type": "uint256"
        }
      ],
      "name": "LiquidityLocked",
      "type": "event"
    },
    {
      "anonymous": false,
      "inputs": [
        {
          "indexed": false,
          "internalType": "uint256",
          "name": "lockId",
          "type": "uint256"
        },
        {
          "indexed": true,
          "internalType": "address",
          "name": "provider",
          "type": "address"
        },
        {
          "indexed": true,
          "internalType": "contract IERC20",
          "name": "tokenA",
          "type": "address"
        },
        {
          "indexed": true,
          "internalType": "contract IERC20",
          "name": "tokenB",
          "type": "address"
        },
        {
          "indexed": false,
          "internalType": "uint256",
          "name": "liquidity",
          "type": "uint256"
        }
      ],
      "name": "LiquidityUnlocked",
      "type": "event"
    },
    {
      "inputs": [
        {
          "components": [
            {
              "internalType": "contract IERC20",
              "name": "a",
              "type": "address"
            },
            {
              "internalType": "contract IERC20",
              "name": "b",
              "type": "address"
            }
          ],
          "internalType": "struct LiquidityLocker.Pair",
          "name": "tokens",
          "type": "tuple"
        },
        {
          "components": [
            {
              "internalType": "uint256",
              "name": "a",
              "type": "uint256"
            },
            {
              "internalType": "uint256",
              "name": "b",
              "type": "uint256"
            }
          ],
          "internalType": "struct LiquidityLocker.PairAmounts",
          "name": "desiredAmounts",
          "type": "tuple"
        },
        {
          "components": [
            {
              "internalType": "uint256",
              "name": "a",
              "type": "uint256"
            },
            {
              "internalType": "uint256",
              "name": "b",
              "type": "uint256"
            }
          ],
          "internalType": "struct LiquidityLocker.PairAmounts",
          "name": "minAmounts",
          "type": "tuple"
        },
        {
          "internalType": "uint256",
          "name": "deadline",
          "type": "uint256"
        },
        {
          "internalType": "uint256",
          "name": "unlocktime",
          "type": "uint256"
        }
      ],
      "name": "addAndLockLiquidity",
      "outputs": [
        {
          "components": [
            {
              "components": [
                {
                  "internalType": "uint256",
                  "name": "a",
                  "type": "uint256"
                },
                {
                  "internalType": "uint256",
                  "name": "b",
                  "type": "uint256"
                }
              ],
              "internalType": "struct LiquidityLocker.PairAmounts",
              "name": "tokenAmounts",
              "type": "tuple"
            },
            {
              "internalType": "uint256",
              "name": "liquidity",
              "type": "uint256"
            }
          ],
          "internalType": "struct LiquidityLocker.LiquidityAddition",
          "name": "liquidityAddition",
          "type": "tuple"
        }
      ],
      "stateMutability": "nonpayable",
      "type": "function"
    },
    {
      "inputs": [
        {
          "internalType": "uint256",
          "name": "",
          "type": "uint256"
        }
      ],
      "name": "liquidityLocks",
      "outputs": [
        {
          "components": [
            {
              "internalType": "contract IERC20",
              "name": "a",
              "type": "address"
            },
            {
              "internalType": "contract IERC20",
              "name": "b",
              "type": "address"
            }
          ],
          "internalType": "struct LiquidityLocker.Pair",
          "name": "tokens",
          "type": "tuple"
        },
        {
          "internalType": "uint256",
          "name": "liquidity",
          "type": "uint256"
        },
        {
          "internalType": "uint256",
          "name": "unlocktime",
          "type": "uint256"
        },
        {
          "internalType": "address",
          "name": "provider",
          "type": "address"
        }
      ],
      "stateMutability": "view",
      "type": "function"
    },
    {
      "inputs": [],
      "name": "nrOfLiquidityLocks",
      "outputs": [
        {
          "internalType": "uint256",
          "name": "_value",
          "type": "uint256"
        }
      ],
      "stateMutability": "view",
      "type": "function"
    },
    {
      "inputs": [
        {
          "internalType": "uint256",
          "name": "liquidityLockID",
          "type": "uint256"
        },
        {
          "internalType": "uint256",
          "name": "liquidity",
          "type": "uint256"
        },
        {
          "components": [
            {
              "internalType": "uint256",
              "name": "a",
              "type": "uint256"
            },
            {
              "internalType": "uint256",
              "name": "b",
              "type": "uint256"
            }
          ],
          "internalType": "struct LiquidityLocker.PairAmounts",
          "name": "minAmounts",
          "type": "tuple"
        },
        {
          "internalType": "uint256",
          "name": "deadline",
          "type": "uint256"
        }
      ],
      "name": "removeUnlockedLiquidity",
      "outputs": [
        {
          "components": [
            {
              "internalType": "uint256",
              "name": "a",
              "type": "uint256"
            },
            {
              "internalType": "uint256",
              "name": "b",
              "type": "uint256"
            }
          ],
          "internalType": "struct LiquidityLocker.PairAmounts",
          "name": "amounts",
          "type": "tuple"
        }
      ],
      "stateMutability": "nonpayable",
      "type": "function"
    },
    {
      "inputs": [],
      "name": "router",
      "outputs": [
        {
          "internalType": "contract IUniswapV2Router",
          "name": "",
          "type": "address"
        }
      ],
      "stateMutability": "view",
      "type": "function"
    }
  ],
  "transactionHash": "0x6bdbf723701064463836fde5292f8702400cb44bcb9ce101ce4d2e1fbd61960d",
  "args": [
    "0xa5E0829CaCEd8fFDD4De3c43696c57F7D7A678ff"
  ],
  "solcInputHash": "6dd3a0e306e5f8421486408ec885264f",
  "bytecode": "0x60806040523480156200001157600080fd5b50604051620021e7380380620021e7833981810160405281019062000037919062000095565b806000806101000a81548173ffffffffffffffffffffffffffffffffffffffff021916908373ffffffffffffffffffffffffffffffffffffffff1602179055505062000123565b6000815190506200008f8162000109565b92915050565b600060208284031215620000a857600080fd5b6000620000b8848285016200007e565b91505092915050565b6000620000ce82620000e9565b9050919050565b6000620000e282620000c1565b9050919050565b600073ffffffffffffffffffffffffffffffffffffffff82169050919050565b6200011481620000d5565b81146200012057600080fd5b50565b6120b480620001336000396000f3fe608060405234801561001057600080fd5b50600436106100575760003560e01c806379363a291461005c57806380aa50851461007a578063a76e05f8146100aa578063f4f9ecd7146100dd578063f887ea401461010d575b600080fd5b61006461012b565b6040516100719190611b9e565b60405180910390f35b610094600480360381019061008f91906114db565b610137565b6040516100a19190611b3e565b60405180910390f35b6100c460048036038101906100bf919061144d565b61064d565b6040516100d49493929190611b59565b60405180910390f35b6100f760048036038101906100f291906113d5565b610753565b6040516101049190611b23565b60405180910390f35b610115610ca8565b60405161012291906119c6565b60405180910390f35b60028060000154905081565b61013f611248565b6000600160008781526020019081526020016000209050806003015442101561019d576040517f08c379a000000000000000000000000000000000000000000000000000000000815260040161019490611a43565b60405180910390fd5b3373ffffffffffffffffffffffffffffffffffffffff168160040160009054906101000a900473ffffffffffffffffffffffffffffffffffffffff1673ffffffffffffffffffffffffffffffffffffffff161461022f576040517f08c379a000000000000000000000000000000000000000000000000000000000815260040161022690611a83565b60405180910390fd5b8481600201541015610276576040517f08c379a000000000000000000000000000000000000000000000000000000000815260040161026d90611a03565b60405180910390fd5b8481600201600082825461028a9190611c70565b9250508190555060008060009054906101000a900473ffffffffffffffffffffffffffffffffffffffff1673ffffffffffffffffffffffffffffffffffffffff1663c45a01556040518163ffffffff1660e01b8152600401602060405180830381600087803b1580156102fc57600080fd5b505af1158015610310573d6000803e3d6000fd5b505050506040513d601f19601f820116820180604052508101906103349190611383565b73ffffffffffffffffffffffffffffffffffffffff1663e6a439058360000160000160009054906101000a900473ffffffffffffffffffffffffffffffffffffffff168460000160010160009054906101000a900473ffffffffffffffffffffffffffffffffffffffff166040518363ffffffff1660e01b81526004016103bc929190611850565b60206040518083038186803b1580156103d457600080fd5b505afa1580156103e8573d6000803e3d6000fd5b505050506040513d601f19601f8201168201806040525081019061040c9190611383565b905061045960008054906101000a900473ffffffffffffffffffffffffffffffffffffffff16878373ffffffffffffffffffffffffffffffffffffffff16610ccc9092919063ffffffff16565b60008054906101000a900473ffffffffffffffffffffffffffffffffffffffff1673ffffffffffffffffffffffffffffffffffffffff1663baa2abde8360000160000160009054906101000a900473ffffffffffffffffffffffffffffffffffffffff168460000160010160009054906101000a900473ffffffffffffffffffffffffffffffffffffffff168989600001518a60200151338b6040518863ffffffff1660e01b815260040161051497969594939291906118b0565b6040805180830381600087803b15801561052d57600080fd5b505af1158015610541573d6000803e3d6000fd5b505050506040513d601f19601f82011682018060405250810190610565919061149f565b8460000185602001828152508281525050508160000160010160009054906101000a900473ffffffffffffffffffffffffffffffffffffffff1673ffffffffffffffffffffffffffffffffffffffff168260000160000160009054906101000a900473ffffffffffffffffffffffffffffffffffffffff1673ffffffffffffffffffffffffffffffffffffffff163373ffffffffffffffffffffffffffffffffffffffff167f0a2a3b7da250359a22e13ffa579210c9d0c9298b11bf7b89e3492ee5c343a8688a8a60405161063b929190611bb9565b60405180910390a45050949350505050565b6001602052806000526040600020600091509050806000016040518060400160405290816000820160009054906101000a900473ffffffffffffffffffffffffffffffffffffffff1673ffffffffffffffffffffffffffffffffffffffff1673ffffffffffffffffffffffffffffffffffffffff1681526020016001820160009054906101000a900473ffffffffffffffffffffffffffffffffffffffff1673ffffffffffffffffffffffffffffffffffffffff1673ffffffffffffffffffffffffffffffffffffffff1681525050908060020154908060030154908060040160009054906101000a900473ffffffffffffffffffffffffffffffffffffffff16905084565b61075b611262565b85600001518560000151808273ffffffffffffffffffffffffffffffffffffffff1663dd62ed3e33306040518363ffffffff1660e01b81526004016107a1929190611850565b60206040518083038186803b1580156107b957600080fd5b505afa1580156107cd573d6000803e3d6000fd5b505050506040513d601f19601f820116820180604052508101906107f19190611476565b1015610832576040517f08c379a000000000000000000000000000000000000000000000000000000000815260040161082990611a23565b60405180910390fd5b87602001518760200151808273ffffffffffffffffffffffffffffffffffffffff1663dd62ed3e33306040518363ffffffff1660e01b8152600401610878929190611850565b60206040518083038186803b15801561089057600080fd5b505afa1580156108a4573d6000803e3d6000fd5b505050506040513d601f19601f820116820180604052508101906108c89190611476565b1015610909576040517f08c379a000000000000000000000000000000000000000000000000000000000815260040161090090611a23565b60405180910390fd5b42861161094b576040517f08c379a000000000000000000000000000000000000000000000000000000000815260040161094290611b03565b60405180910390fd5b61098033308b600001518d6000015173ffffffffffffffffffffffffffffffffffffffff16610e2a909392919063ffffffff16565b6109b533308b602001518d6020015173ffffffffffffffffffffffffffffffffffffffff16610e2a909392919063ffffffff16565b610a0860008054906101000a900473ffffffffffffffffffffffffffffffffffffffff168a600001518c6000015173ffffffffffffffffffffffffffffffffffffffff16610ccc9092919063ffffffff16565b610a5b60008054906101000a900473ffffffffffffffffffffffffffffffffffffffff168a602001518c6020015173ffffffffffffffffffffffffffffffffffffffff16610ccc9092919063ffffffff16565b610a678a8a8a8a610eb3565b94506000610a756002610fb7565b9050604051806080016040528060405180604001604052808e6000015173ffffffffffffffffffffffffffffffffffffffff1681526020018e6020015173ffffffffffffffffffffffffffffffffffffffff168152508152602001876020015181526020018881526020013373ffffffffffffffffffffffffffffffffffffffff168152506001600083815260200190815260200160002060008201518160000160008201518160000160006101000a81548173ffffffffffffffffffffffffffffffffffffffff021916908373ffffffffffffffffffffffffffffffffffffffff16021790555060208201518160010160006101000a81548173ffffffffffffffffffffffffffffffffffffffff021916908373ffffffffffffffffffffffffffffffffffffffff1602179055505050602082015181600201556040820151816003015560608201518160040160006101000a81548173ffffffffffffffffffffffffffffffffffffffff021916908373ffffffffffffffffffffffffffffffffffffffff160217905550905050610c0e6002610fc5565b8a6020015173ffffffffffffffffffffffffffffffffffffffff168b6000015173ffffffffffffffffffffffffffffffffffffffff163373ffffffffffffffffffffffffffffffffffffffff167f80f93bd54149db92affece828912d23df741988e353a9a74dee49361b49ae23f848a602001518c604051610c9293929190611be2565b60405180910390a4505050505095945050505050565b60008054906101000a900473ffffffffffffffffffffffffffffffffffffffff1681565b6000811480610d65575060008373ffffffffffffffffffffffffffffffffffffffff1663dd62ed3e30856040518363ffffffff1660e01b8152600401610d13929190611850565b60206040518083038186803b158015610d2b57600080fd5b505afa158015610d3f573d6000803e3d6000fd5b505050506040513d601f19601f82011682018060405250810190610d639190611476565b145b610da4576040517f08c379a0000000000000000000000000000000000000000000000000000000008152600401610d9b90611ae3565b60405180910390fd5b610e258363095ea7b360e01b8484604051602401610dc392919061199d565b604051602081830303815290604052907bffffffffffffffffffffffffffffffffffffffffffffffffffffffff19166020820180517bffffffffffffffffffffffffffffffffffffffffffffffffffffffff8381831617835250505050610fdb565b505050565b610ead846323b872dd60e01b858585604051602401610e4b93929190611879565b604051602081830303815290604052907bffffffffffffffffffffffffffffffffffffffffffffffffffffffff19166020820180517bffffffffffffffffffffffffffffffffffffffffffffffffffffffff8381831617835250505050610fdb565b50505050565b610ebb611262565b60008054906101000a900473ffffffffffffffffffffffffffffffffffffffff1673ffffffffffffffffffffffffffffffffffffffff1663e8e33700866000015187602001518760000151886020015188600001518960200151308a6040518963ffffffff1660e01b8152600401610f3a98979695949392919061191f565b606060405180830381600087803b158015610f5457600080fd5b505af1158015610f68573d6000803e3d6000fd5b505050506040513d601f19601f82011682018060405250810190610f8c919061153e565b8360000151600001846000015160200185602001838152508381525083815250505050949350505050565b600081600001549050919050565b6001816000016000828254019250508190555050565b600061103d826040518060400160405280602081526020017f5361666545524332303a206c6f772d6c6576656c2063616c6c206661696c65648152508573ffffffffffffffffffffffffffffffffffffffff166110a29092919063ffffffff16565b905060008151111561109d578080602001905181019061105d91906113ac565b61109c576040517f08c379a000000000000000000000000000000000000000000000000000000000815260040161109390611ac3565b60405180910390fd5b5b505050565b60606110b184846000856110ba565b90509392505050565b6060824710156110ff576040517f08c379a00000000000000000000000000000000000000000000000000000000081526004016110f690611a63565b60405180910390fd5b611108856111ce565b611147576040517f08c379a000000000000000000000000000000000000000000000000000000000815260040161113e90611aa3565b60405180910390fd5b6000808673ffffffffffffffffffffffffffffffffffffffff1685876040516111709190611839565b60006040518083038185875af1925050503d80600081146111ad576040519150601f19603f3d011682016040523d82523d6000602084013e6111b2565b606091505b50915091506111c28282866111e1565b92505050949350505050565b600080823b905060008111915050919050565b606083156111f157829050611241565b6000835111156112045782518084602001fd5b816040517f08c379a000000000000000000000000000000000000000000000000000000000815260040161123891906119e1565b60405180910390fd5b9392505050565b604051806040016040528060008152602001600081525090565b6040518060400160405280611275611248565b8152602001600081525090565b60008151905061129181612022565b92915050565b6000815190506112a681612039565b92915050565b6000813590506112bb81612050565b92915050565b6000604082840312156112d357600080fd5b6112dd6040611c19565b905060006112ed84828501611359565b600083015250602061130184828501611359565b60208301525092915050565b60006040828403121561131f57600080fd5b6113296040611c19565b90506000611339848285016112ac565b600083015250602061134d848285016112ac565b60208301525092915050565b60008135905061136881612067565b92915050565b60008151905061137d81612067565b92915050565b60006020828403121561139557600080fd5b60006113a384828501611282565b91505092915050565b6000602082840312156113be57600080fd5b60006113cc84828501611297565b91505092915050565b600080600080600061010086880312156113ee57600080fd5b60006113fc8882890161130d565b955050604061140d888289016112c1565b945050608061141e888289016112c1565b93505060c061142f88828901611359565b92505060e061144088828901611359565b9150509295509295909350565b60006020828403121561145f57600080fd5b600061146d84828501611359565b91505092915050565b60006020828403121561148857600080fd5b60006114968482850161136e565b91505092915050565b600080604083850312156114b257600080fd5b60006114c08582860161136e565b92505060206114d18582860161136e565b9150509250929050565b60008060008060a085870312156114f157600080fd5b60006114ff87828801611359565b945050602061151087828801611359565b9350506040611521878288016112c1565b925050608061153287828801611359565b91505092959194509250565b60008060006060848603121561155357600080fd5b60006115618682870161136e565b93505060206115728682870161136e565b92505060406115838682870161136e565b9150509250925092565b61159681611ca4565b82525050565b60006115a782611c3e565b6115b18185611c54565b93506115c1818560208601611d46565b80840191505092915050565b6115d681611cfe565b82525050565b6115e581611d22565b82525050565b60006115f682611c49565b6116008185611c5f565b9350611610818560208601611d46565b61161981611e08565b840191505092915050565b6000611631601783611c5f565b915061163c82611e19565b602082019050919050565b6000611654601383611c5f565b915061165f82611e42565b602082019050919050565b6000611677601983611c5f565b915061168282611e6b565b602082019050919050565b600061169a602683611c5f565b91506116a582611e94565b604082019050919050565b60006116bd601f83611c5f565b91506116c882611ee3565b602082019050919050565b60006116e0601d83611c5f565b91506116eb82611f0c565b602082019050919050565b6000611703602a83611c5f565b915061170e82611f35565b604082019050919050565b6000611726603683611c5f565b915061173182611f84565b604082019050919050565b6000611749602283611c5f565b915061175482611fd3565b604082019050919050565b606082016000820151611775600085018261178e565b506020820151611788604085018261181b565b50505050565b6040820160008201516117a4600085018261181b565b5060208201516117b7602085018261181b565b50505050565b6040820160008201516117d3600085018261181b565b5060208201516117e6602085018261181b565b50505050565b60408201600082015161180260008501826115cd565b50602082015161181560208501826115cd565b50505050565b61182481611cf4565b82525050565b61183381611cf4565b82525050565b6000611845828461159c565b915081905092915050565b6000604082019050611865600083018561158d565b611872602083018461158d565b9392505050565b600060608201905061188e600083018661158d565b61189b602083018561158d565b6118a8604083018461182a565b949350505050565b600060e0820190506118c5600083018a61158d565b6118d2602083018961158d565b6118df604083018861182a565b6118ec606083018761182a565b6118f9608083018661182a565b61190660a083018561158d565b61191360c083018461182a565b98975050505050505050565b600061010082019050611935600083018b61158d565b611942602083018a61158d565b61194f604083018961182a565b61195c606083018861182a565b611969608083018761182a565b61197660a083018661182a565b61198360c083018561158d565b61199060e083018461182a565b9998505050505050505050565b60006040820190506119b2600083018561158d565b6119bf602083018461182a565b9392505050565b60006020820190506119db60008301846115dc565b92915050565b600060208201905081810360008301526119fb81846115eb565b905092915050565b60006020820190508181036000830152611a1c81611624565b9050919050565b60006020820190508181036000830152611a3c81611647565b9050919050565b60006020820190508181036000830152611a5c8161166a565b9050919050565b60006020820190508181036000830152611a7c8161168d565b9050919050565b60006020820190508181036000830152611a9c816116b0565b9050919050565b60006020820190508181036000830152611abc816116d3565b9050919050565b60006020820190508181036000830152611adc816116f6565b9050919050565b60006020820190508181036000830152611afc81611719565b9050919050565b60006020820190508181036000830152611b1c8161173c565b9050919050565b6000606082019050611b38600083018461175f565b92915050565b6000604082019050611b5360008301846117bd565b92915050565b600060a082019050611b6e60008301876117ec565b611b7b604083018661182a565b611b88606083018561182a565b611b95608083018461158d565b95945050505050565b6000602082019050611bb3600083018461182a565b92915050565b6000604082019050611bce600083018561182a565b611bdb602083018461182a565b9392505050565b6000606082019050611bf7600083018661182a565b611c04602083018561182a565b611c11604083018461182a565b949350505050565b6000611c23611c34565b9050611c2f8282611d79565b919050565b6000604051905090565b600081519050919050565b600081519050919050565b600081905092915050565b600082825260208201905092915050565b6000611c7b82611cf4565b9150611c8683611cf4565b925082821015611c9957611c98611daa565b5b828203905092915050565b6000611caf82611cd4565b9050919050565b60008115159050919050565b6000611ccd82611ca4565b9050919050565b600073ffffffffffffffffffffffffffffffffffffffff82169050919050565b6000819050919050565b6000611d0982611d10565b9050919050565b6000611d1b82611cd4565b9050919050565b6000611d2d82611d34565b9050919050565b6000611d3f82611cd4565b9050919050565b60005b83811015611d64578082015181840152602081019050611d49565b83811115611d73576000848401525b50505050565b611d8282611e08565b810181811067ffffffffffffffff82111715611da157611da0611dd9565b5b80604052505050565b7f4e487b7100000000000000000000000000000000000000000000000000000000600052601160045260246000fd5b7f4e487b7100000000000000000000000000000000000000000000000000000000600052604160045260246000fd5b6000601f19601f8301169050919050565b7f4e6f7420656e6f756768206c65667420696e206c6f636b000000000000000000600082015250565b7f416d6f756e74206e6f7420617070726f76656400000000000000000000000000600082015250565b7f4c6971756964697479206973207374696c6c206c6f636b656400000000000000600082015250565b7f416464726573733a20696e73756666696369656e742062616c616e636520666f60008201527f722063616c6c0000000000000000000000000000000000000000000000000000602082015250565b7f43616e206f6e6c792062652072656d6f7665642062792070726f766964657200600082015250565b7f416464726573733a2063616c6c20746f206e6f6e2d636f6e7472616374000000600082015250565b7f5361666545524332303a204552433230206f7065726174696f6e20646964206e60008201527f6f74207375636365656400000000000000000000000000000000000000000000602082015250565b7f5361666545524332303a20617070726f76652066726f6d206e6f6e2d7a65726f60008201527f20746f206e6f6e2d7a65726f20616c6c6f77616e636500000000000000000000602082015250565b7f556e6c6f636b2074696d65206973206265666f72652063757272656e7420746960008201527f6d65000000000000000000000000000000000000000000000000000000000000602082015250565b61202b81611ca4565b811461203657600080fd5b50565b61204281611cb6565b811461204d57600080fd5b50565b61205981611cc2565b811461206457600080fd5b50565b61207081611cf4565b811461207b57600080fd5b5056fea26469706673582212206a47533049868eaaf68bd8e0378f9d6eb67493b17f0277a547697d3c8fc1af3564736f6c63430008040033",
  "devdoc": {
    "kind": "dev",
    "methods": {},
    "version": 1
  },
  "userdoc": {
    "kind": "user",
    "methods": {},
    "version": 1
  },
  "storageLayout": {
    "storage": [
      {
        "astId": 718,
        "contract": "contracts/LiquidityLocker.sol:LiquidityLocker",
        "label": "router",
        "offset": 0,
        "slot": "0",
        "type": "t_contract(IUniswapV2Router)1247"
      },
      {
        "astId": 723,
        "contract": "contracts/LiquidityLocker.sol:LiquidityLocker",
        "label": "liquidityLocks",
        "offset": 0,
        "slot": "1",
        "type": "t_mapping(t_uint256,t_struct(LiquidityLock)715_storage)"
      },
      {
        "astId": 726,
        "contract": "contracts/LiquidityLocker.sol:LiquidityLocker",
        "label": "nrOfLiquidityLocks",
        "offset": 0,
        "slot": "2",
        "type": "t_struct(Counter)604_storage"
      }
    ],
    "types": {
      "t_address": {
        "encoding": "inplace",
        "label": "address",
        "numberOfBytes": "20"
      },
      "t_contract(IERC20)77": {
        "encoding": "inplace",
        "label": "contract IERC20",
        "numberOfBytes": "20"
      },
      "t_contract(IUniswapV2Router)1247": {
        "encoding": "inplace",
        "label": "contract IUniswapV2Router",
        "numberOfBytes": "20"
      },
      "t_mapping(t_uint256,t_struct(LiquidityLock)715_storage)": {
        "encoding": "mapping",
        "key": "t_uint256",
        "label": "mapping(uint256 => struct LiquidityLocker.LiquidityLock)",
        "numberOfBytes": "32",
        "value": "t_struct(LiquidityLock)715_storage"
      },
      "t_struct(Counter)604_storage": {
        "encoding": "inplace",
        "label": "struct Counters.Counter",
        "members": [
          {
            "astId": 603,
            "contract": "contracts/LiquidityLocker.sol:LiquidityLocker",
            "label": "_value",
            "offset": 0,
            "slot": "0",
            "type": "t_uint256"
          }
        ],
        "numberOfBytes": "32"
      },
      "t_struct(LiquidityLock)715_storage": {
        "encoding": "inplace",
        "label": "struct LiquidityLocker.LiquidityLock",
        "members": [
          {
            "astId": 708,
            "contract": "contracts/LiquidityLocker.sol:LiquidityLocker",
            "label": "tokens",
            "offset": 0,
            "slot": "0",
            "type": "t_struct(Pair)694_storage"
          },
          {
            "astId": 710,
            "contract": "contracts/LiquidityLocker.sol:LiquidityLocker",
            "label": "liquidity",
            "offset": 0,
            "slot": "2",
            "type": "t_uint256"
          },
          {
            "astId": 712,
            "contract": "contracts/LiquidityLocker.sol:LiquidityLocker",
            "label": "unlocktime",
            "offset": 0,
            "slot": "3",
            "type": "t_uint256"
          },
          {
            "astId": 714,
            "contract": "contracts/LiquidityLocker.sol:LiquidityLocker",
            "label": "provider",
            "offset": 0,
            "slot": "4",
            "type": "t_address"
          }
        ],
        "numberOfBytes": "160"
      },
      "t_struct(Pair)694_storage": {
        "encoding": "inplace",
        "label": "struct LiquidityLocker.Pair",
        "members": [
          {
            "astId": 690,
            "contract": "contracts/LiquidityLocker.sol:LiquidityLocker",
            "label": "a",
            "offset": 0,
            "slot": "0",
            "type": "t_contract(IERC20)77"
          },
          {
            "astId": 693,
            "contract": "contracts/LiquidityLocker.sol:LiquidityLocker",
            "label": "b",
            "offset": 0,
            "slot": "1",
            "type": "t_contract(IERC20)77"
          }
        ],
        "numberOfBytes": "64"
      },
      "t_uint256": {
        "encoding": "inplace",
        "label": "uint256",
        "numberOfBytes": "32"
      }
    }
  }
}