{
  "address": "0x7e887E860f2EBf9f49f296fFB0f290D1FBF304FD",
  "abi": [
    {
      "inputs": [
        {
          "internalType": "contract IUniswapV2Router",
          "name": "_router",
          "type": "address"
        }
      ],
      "stateMutability": "nonpayable",
      "type": "constructor"
    },
    {
      "inputs": [
        {
          "components": [
            {
              "internalType": "contract IERC20",
              "name": "a",
              "type": "address"
            },
            {
              "internalType": "contract IERC20",
              "name": "b",
              "type": "address"
            }
          ],
          "internalType": "struct LiquidityLocker.Pair",
          "name": "tokens",
          "type": "tuple"
        },
        {
          "components": [
            {
              "internalType": "uint256",
              "name": "a",
              "type": "uint256"
            },
            {
              "internalType": "uint256",
              "name": "b",
              "type": "uint256"
            }
          ],
          "internalType": "struct LiquidityLocker.PairAmounts",
          "name": "desiredAmounts",
          "type": "tuple"
        },
        {
          "components": [
            {
              "internalType": "uint256",
              "name": "a",
              "type": "uint256"
            },
            {
              "internalType": "uint256",
              "name": "b",
              "type": "uint256"
            }
          ],
          "internalType": "struct LiquidityLocker.PairAmounts",
          "name": "minAmounts",
          "type": "tuple"
        },
        {
          "internalType": "uint256",
          "name": "deadline",
          "type": "uint256"
        },
        {
          "internalType": "uint256",
          "name": "unlocktime",
          "type": "uint256"
        }
      ],
      "name": "addAndLockLiquidity",
      "outputs": [
        {
          "components": [
            {
              "components": [
                {
                  "internalType": "uint256",
                  "name": "a",
                  "type": "uint256"
                },
                {
                  "internalType": "uint256",
                  "name": "b",
                  "type": "uint256"
                }
              ],
              "internalType": "struct LiquidityLocker.PairAmounts",
              "name": "tokenAmounts",
              "type": "tuple"
            },
            {
              "internalType": "uint256",
              "name": "liquidity",
              "type": "uint256"
            }
          ],
          "internalType": "struct LiquidityLocker.LiquidityAddition",
          "name": "liquidityAddition",
          "type": "tuple"
        }
      ],
      "stateMutability": "nonpayable",
      "type": "function"
    },
    {
      "inputs": [
        {
          "internalType": "uint256",
          "name": "",
          "type": "uint256"
        }
      ],
      "name": "liquidityLocks",
      "outputs": [
        {
          "components": [
            {
              "internalType": "contract IERC20",
              "name": "a",
              "type": "address"
            },
            {
              "internalType": "contract IERC20",
              "name": "b",
              "type": "address"
            }
          ],
          "internalType": "struct LiquidityLocker.Pair",
          "name": "tokens",
          "type": "tuple"
        },
        {
          "internalType": "uint256",
          "name": "liquidity",
          "type": "uint256"
        },
        {
          "internalType": "uint256",
          "name": "unlocktime",
          "type": "uint256"
        },
        {
          "internalType": "address",
          "name": "provider",
          "type": "address"
        }
      ],
      "stateMutability": "view",
      "type": "function"
    },
    {
      "inputs": [],
      "name": "nrOfLiquidityLocks",
      "outputs": [
        {
          "internalType": "uint256",
          "name": "_value",
          "type": "uint256"
        }
      ],
      "stateMutability": "view",
      "type": "function"
    },
    {
      "inputs": [
        {
          "internalType": "uint256",
          "name": "liquidityLockID",
          "type": "uint256"
        },
        {
          "internalType": "uint256",
          "name": "liquidity",
          "type": "uint256"
        },
        {
          "components": [
            {
              "internalType": "uint256",
              "name": "a",
              "type": "uint256"
            },
            {
              "internalType": "uint256",
              "name": "b",
              "type": "uint256"
            }
          ],
          "internalType": "struct LiquidityLocker.PairAmounts",
          "name": "minAmounts",
          "type": "tuple"
        },
        {
          "internalType": "uint256",
          "name": "deadline",
          "type": "uint256"
        }
      ],
      "name": "removeUnlockedLiquidity",
      "outputs": [
        {
          "components": [
            {
              "internalType": "uint256",
              "name": "a",
              "type": "uint256"
            },
            {
              "internalType": "uint256",
              "name": "b",
              "type": "uint256"
            }
          ],
          "internalType": "struct LiquidityLocker.PairAmounts",
          "name": "amounts",
          "type": "tuple"
        }
      ],
      "stateMutability": "nonpayable",
      "type": "function"
    },
    {
      "inputs": [],
      "name": "router",
      "outputs": [
        {
          "internalType": "contract IUniswapV2Router",
          "name": "",
          "type": "address"
        }
      ],
      "stateMutability": "view",
      "type": "function"
    }
  ],
  "transactionHash": "0x8964b0188dd0fdafe37fe5c0bee70271ea040462db04f0d1faad94e67d54dd5d",
  "args": [
    "0xa5E0829CaCEd8fFDD4De3c43696c57F7D7A678ff"
  ],
  "solcInputHash": "08b60fd5d5e9a7854ea1173928f90ff6",
  "bytecode": "0x60806040523480156200001157600080fd5b5060405162001aab38038062001aab833981810160405281019062000037919062000095565b806000806101000a81548173ffffffffffffffffffffffffffffffffffffffff021916908373ffffffffffffffffffffffffffffffffffffffff1602179055505062000123565b6000815190506200008f8162000109565b92915050565b600060208284031215620000a857600080fd5b6000620000b8848285016200007e565b91505092915050565b6000620000ce82620000e9565b9050919050565b6000620000e282620000c1565b9050919050565b600073ffffffffffffffffffffffffffffffffffffffff82169050919050565b6200011481620000d5565b81146200012057600080fd5b50565b61197880620001336000396000f3fe608060405234801561001057600080fd5b50600436106100575760003560e01c806379363a291461005c57806380aa50851461007a578063a76e05f8146100aa578063f4f9ecd7146100dd578063f887ea401461010d575b600080fd5b61006461012b565b604051610071919061162c565b60405180910390f35b610094600480360381019061008f9190611118565b610137565b6040516100a191906115cc565b60405180910390f35b6100c460048036038101906100bf919061108a565b6105e4565b6040516100d494939291906115e7565b60405180910390f35b6100f760048036038101906100f29190611012565b6106ea565b60405161010491906115b1565b60405180910390f35b610115610d39565b60405161012291906114f6565b60405180910390f35b60028060000154905081565b61013f610e85565b6000600160008781526020019081526020016000209050806003015442101561019d576040517f08c379a000000000000000000000000000000000000000000000000000000000815260040161019490611551565b60405180910390fd5b3373ffffffffffffffffffffffffffffffffffffffff168160040160009054906101000a900473ffffffffffffffffffffffffffffffffffffffff1673ffffffffffffffffffffffffffffffffffffffff161461022f576040517f08c379a000000000000000000000000000000000000000000000000000000000815260040161022690611571565b60405180910390fd5b8481600201541015610276576040517f08c379a000000000000000000000000000000000000000000000000000000000815260040161026d90611511565b60405180910390fd5b8481600201600082825461028a919061167d565b9250508190555060008060009054906101000a900473ffffffffffffffffffffffffffffffffffffffff1673ffffffffffffffffffffffffffffffffffffffff1663c45a01556040518163ffffffff1660e01b8152600401602060405180830381600087803b1580156102fc57600080fd5b505af1158015610310573d6000803e3d6000fd5b505050506040513d601f19601f820116820180604052508101906103349190610fc0565b73ffffffffffffffffffffffffffffffffffffffff1663e6a439058360000160000160009054906101000a900473ffffffffffffffffffffffffffffffffffffffff168460000160010160009054906101000a900473ffffffffffffffffffffffffffffffffffffffff166040518363ffffffff1660e01b81526004016103bc929190611380565b60206040518083038186803b1580156103d457600080fd5b505afa1580156103e8573d6000803e3d6000fd5b505050506040513d601f19601f8201168201806040525081019061040c9190610fc0565b90508073ffffffffffffffffffffffffffffffffffffffff1663095ea7b360008054906101000a900473ffffffffffffffffffffffffffffffffffffffff16886040518363ffffffff1660e01b81526004016104699291906114cd565b602060405180830381600087803b15801561048357600080fd5b505af1158015610497573d6000803e3d6000fd5b505050506040513d601f19601f820116820180604052508101906104bb9190610fe9565b5060008054906101000a900473ffffffffffffffffffffffffffffffffffffffff1673ffffffffffffffffffffffffffffffffffffffff1663baa2abde8360000160000160009054906101000a900473ffffffffffffffffffffffffffffffffffffffff168460000160010160009054906101000a900473ffffffffffffffffffffffffffffffffffffffff168989600001518a60200151338b6040518863ffffffff1660e01b815260040161057797969594939291906113e0565b6040805180830381600087803b15801561059057600080fd5b505af11580156105a4573d6000803e3d6000fd5b505050506040513d601f19601f820116820180604052508101906105c891906110dc565b8460000185602001828152508281525050505050949350505050565b6001602052806000526040600020600091509050806000016040518060400160405290816000820160009054906101000a900473ffffffffffffffffffffffffffffffffffffffff1673ffffffffffffffffffffffffffffffffffffffff1673ffffffffffffffffffffffffffffffffffffffff1681526020016001820160009054906101000a900473ffffffffffffffffffffffffffffffffffffffff1673ffffffffffffffffffffffffffffffffffffffff1673ffffffffffffffffffffffffffffffffffffffff1681525050908060020154908060030154908060040160009054906101000a900473ffffffffffffffffffffffffffffffffffffffff16905084565b6106f2610e9f565b85600001518560000151808273ffffffffffffffffffffffffffffffffffffffff1663dd62ed3e33306040518363ffffffff1660e01b8152600401610738929190611380565b60206040518083038186803b15801561075057600080fd5b505afa158015610764573d6000803e3d6000fd5b505050506040513d601f19601f8201168201806040525081019061078891906110b3565b10156107c9576040517f08c379a00000000000000000000000000000000000000000000000000000000081526004016107c090611531565b60405180910390fd5b87602001518760200151808273ffffffffffffffffffffffffffffffffffffffff1663dd62ed3e33306040518363ffffffff1660e01b815260040161080f929190611380565b60206040518083038186803b15801561082757600080fd5b505afa15801561083b573d6000803e3d6000fd5b505050506040513d601f19601f8201168201806040525081019061085f91906110b3565b10156108a0576040517f08c379a000000000000000000000000000000000000000000000000000000000815260040161089790611531565b60405180910390fd5b4286116108e2576040517f08c379a00000000000000000000000000000000000000000000000000000000081526004016108d990611591565b60405180910390fd5b896000015173ffffffffffffffffffffffffffffffffffffffff166323b872dd33308c600001516040518463ffffffff1660e01b8152600401610927939291906113a9565b602060405180830381600087803b15801561094157600080fd5b505af1158015610955573d6000803e3d6000fd5b505050506040513d601f19601f820116820180604052508101906109799190610fe9565b50896020015173ffffffffffffffffffffffffffffffffffffffff166323b872dd33308c602001516040518463ffffffff1660e01b81526004016109bf939291906113a9565b602060405180830381600087803b1580156109d957600080fd5b505af11580156109ed573d6000803e3d6000fd5b505050506040513d601f19601f82011682018060405250810190610a119190610fe9565b50896000015173ffffffffffffffffffffffffffffffffffffffff1663095ea7b360008054906101000a900473ffffffffffffffffffffffffffffffffffffffff168b600001516040518363ffffffff1660e01b8152600401610a759291906114cd565b602060405180830381600087803b158015610a8f57600080fd5b505af1158015610aa3573d6000803e3d6000fd5b505050506040513d601f19601f82011682018060405250810190610ac79190610fe9565b50896020015173ffffffffffffffffffffffffffffffffffffffff1663095ea7b360008054906101000a900473ffffffffffffffffffffffffffffffffffffffff168b602001516040518363ffffffff1660e01b8152600401610b2b9291906114cd565b602060405180830381600087803b158015610b4557600080fd5b505af1158015610b59573d6000803e3d6000fd5b505050506040513d601f19601f82011682018060405250810190610b7d9190610fe9565b50610b8a8a8a8a8a610d5d565b9450604051806080016040528060405180604001604052808d6000015173ffffffffffffffffffffffffffffffffffffffff1681526020018d6020015173ffffffffffffffffffffffffffffffffffffffff168152508152602001866020015181526020018781526020013373ffffffffffffffffffffffffffffffffffffffff1681525060016000610c1d6002610e61565b815260200190815260200160002060008201518160000160008201518160000160006101000a81548173ffffffffffffffffffffffffffffffffffffffff021916908373ffffffffffffffffffffffffffffffffffffffff16021790555060208201518160010160006101000a81548173ffffffffffffffffffffffffffffffffffffffff021916908373ffffffffffffffffffffffffffffffffffffffff1602179055505050602082015181600201556040820151816003015560608201518160040160006101000a81548173ffffffffffffffffffffffffffffffffffffffff021916908373ffffffffffffffffffffffffffffffffffffffff160217905550905050610d2c6002610e6f565b5050505095945050505050565b60008054906101000a900473ffffffffffffffffffffffffffffffffffffffff1681565b610d65610e9f565b60008054906101000a900473ffffffffffffffffffffffffffffffffffffffff1673ffffffffffffffffffffffffffffffffffffffff1663e8e33700866000015187602001518760000151886020015188600001518960200151308a6040518963ffffffff1660e01b8152600401610de498979695949392919061144f565b606060405180830381600087803b158015610dfe57600080fd5b505af1158015610e12573d6000803e3d6000fd5b505050506040513d601f19601f82011682018060405250810190610e36919061117b565b8360000151600001846000015160200185602001838152508381525083815250505050949350505050565b600081600001549050919050565b6001816000016000828254019250508190555050565b604051806040016040528060008152602001600081525090565b6040518060400160405280610eb2610e85565b8152602001600081525090565b600081519050610ece816118e6565b92915050565b600081519050610ee3816118fd565b92915050565b600081359050610ef881611914565b92915050565b600060408284031215610f1057600080fd5b610f1a6040611647565b90506000610f2a84828501610f96565b6000830152506020610f3e84828501610f96565b60208301525092915050565b600060408284031215610f5c57600080fd5b610f666040611647565b90506000610f7684828501610ee9565b6000830152506020610f8a84828501610ee9565b60208301525092915050565b600081359050610fa58161192b565b92915050565b600081519050610fba8161192b565b92915050565b600060208284031215610fd257600080fd5b6000610fe084828501610ebf565b91505092915050565b600060208284031215610ffb57600080fd5b600061100984828501610ed4565b91505092915050565b6000806000806000610100868803121561102b57600080fd5b600061103988828901610f4a565b955050604061104a88828901610efe565b945050608061105b88828901610efe565b93505060c061106c88828901610f96565b92505060e061107d88828901610f96565b9150509295509295909350565b60006020828403121561109c57600080fd5b60006110aa84828501610f96565b91505092915050565b6000602082840312156110c557600080fd5b60006110d384828501610fab565b91505092915050565b600080604083850312156110ef57600080fd5b60006110fd85828601610fab565b925050602061110e85828601610fab565b9150509250929050565b60008060008060a0858703121561112e57600080fd5b600061113c87828801610f96565b945050602061114d87828801610f96565b935050604061115e87828801610efe565b925050608061116f87828801610f96565b91505092959194509250565b60008060006060848603121561119057600080fd5b600061119e86828701610fab565b93505060206111af86828701610fab565b92505060406111c086828701610fab565b9150509250925092565b6111d3816116b1565b82525050565b6111e28161170b565b82525050565b6111f18161172f565b82525050565b600061120460178361166c565b915061120f826117f3565b602082019050919050565b600061122760138361166c565b91506112328261181c565b602082019050919050565b600061124a60198361166c565b915061125582611845565b602082019050919050565b600061126d601f8361166c565b91506112788261186e565b602082019050919050565b600061129060228361166c565b915061129b82611897565b604082019050919050565b6060820160008201516112bc60008501826112d5565b5060208201516112cf6040850182611362565b50505050565b6040820160008201516112eb6000850182611362565b5060208201516112fe6020850182611362565b50505050565b60408201600082015161131a6000850182611362565b50602082015161132d6020850182611362565b50505050565b60408201600082015161134960008501826111d9565b50602082015161135c60208501826111d9565b50505050565b61136b81611701565b82525050565b61137a81611701565b82525050565b600060408201905061139560008301856111ca565b6113a260208301846111ca565b9392505050565b60006060820190506113be60008301866111ca565b6113cb60208301856111ca565b6113d86040830184611371565b949350505050565b600060e0820190506113f5600083018a6111ca565b61140260208301896111ca565b61140f6040830188611371565b61141c6060830187611371565b6114296080830186611371565b61143660a08301856111ca565b61144360c0830184611371565b98975050505050505050565b600061010082019050611465600083018b6111ca565b611472602083018a6111ca565b61147f6040830189611371565b61148c6060830188611371565b6114996080830187611371565b6114a660a0830186611371565b6114b360c08301856111ca565b6114c060e0830184611371565b9998505050505050505050565b60006040820190506114e260008301856111ca565b6114ef6020830184611371565b9392505050565b600060208201905061150b60008301846111e8565b92915050565b6000602082019050818103600083015261152a816111f7565b9050919050565b6000602082019050818103600083015261154a8161121a565b9050919050565b6000602082019050818103600083015261156a8161123d565b9050919050565b6000602082019050818103600083015261158a81611260565b9050919050565b600060208201905081810360008301526115aa81611283565b9050919050565b60006060820190506115c660008301846112a6565b92915050565b60006040820190506115e16000830184611304565b92915050565b600060a0820190506115fc6000830187611333565b6116096040830186611371565b6116166060830185611371565b61162360808301846111ca565b95945050505050565b60006020820190506116416000830184611371565b92915050565b6000611651611662565b905061165d8282611753565b919050565b6000604051905090565b600082825260208201905092915050565b600061168882611701565b915061169383611701565b9250828210156116a6576116a5611784565b5b828203905092915050565b60006116bc826116e1565b9050919050565b60008115159050919050565b60006116da826116b1565b9050919050565b600073ffffffffffffffffffffffffffffffffffffffff82169050919050565b6000819050919050565b60006117168261171d565b9050919050565b6000611728826116e1565b9050919050565b600061173a82611741565b9050919050565b600061174c826116e1565b9050919050565b61175c826117e2565b810181811067ffffffffffffffff8211171561177b5761177a6117b3565b5b80604052505050565b7f4e487b7100000000000000000000000000000000000000000000000000000000600052601160045260246000fd5b7f4e487b7100000000000000000000000000000000000000000000000000000000600052604160045260246000fd5b6000601f19601f8301169050919050565b7f4e6f7420656e6f756768206c65667420696e206c6f636b000000000000000000600082015250565b7f416d6f756e74206e6f7420617070726f76656400000000000000000000000000600082015250565b7f4c6971756964697479206973207374696c6c206c6f636b656400000000000000600082015250565b7f43616e206f6e6c792062652072656d6f7665642062792070726f766964657200600082015250565b7f556e6c6f636b2074696d65206973206265666f72652063757272656e7420746960008201527f6d65000000000000000000000000000000000000000000000000000000000000602082015250565b6118ef816116b1565b81146118fa57600080fd5b50565b611906816116c3565b811461191157600080fd5b50565b61191d816116cf565b811461192857600080fd5b50565b61193481611701565b811461193f57600080fd5b5056fea2646970667358221220bb16b85f44057daf8c40320880bbf76114cb2b27b1a0349489032b14710d1ef764736f6c63430008040033",
  "devdoc": {
    "kind": "dev",
    "methods": {},
    "version": 1
  },
  "userdoc": {
    "kind": "user",
    "methods": {},
    "version": 1
  },
  "storageLayout": {
    "storage": [
      {
        "astId": 193,
        "contract": "contracts/LiquidityLocker.sol:LiquidityLocker",
        "label": "router",
        "offset": 0,
        "slot": "0",
        "type": "t_contract(IUniswapV2Router)662"
      },
      {
        "astId": 198,
        "contract": "contracts/LiquidityLocker.sol:LiquidityLocker",
        "label": "liquidityLocks",
        "offset": 0,
        "slot": "1",
        "type": "t_mapping(t_uint256,t_struct(LiquidityLock)190_storage)"
      },
      {
        "astId": 201,
        "contract": "contracts/LiquidityLocker.sol:LiquidityLocker",
        "label": "nrOfLiquidityLocks",
        "offset": 0,
        "slot": "2",
        "type": "t_struct(Counter)83_storage"
      }
    ],
    "types": {
      "t_address": {
        "encoding": "inplace",
        "label": "address",
        "numberOfBytes": "20"
      },
      "t_contract(IERC20)77": {
        "encoding": "inplace",
        "label": "contract IERC20",
        "numberOfBytes": "20"
      },
      "t_contract(IUniswapV2Router)662": {
        "encoding": "inplace",
        "label": "contract IUniswapV2Router",
        "numberOfBytes": "20"
      },
      "t_mapping(t_uint256,t_struct(LiquidityLock)190_storage)": {
        "encoding": "mapping",
        "key": "t_uint256",
        "label": "mapping(uint256 => struct LiquidityLocker.LiquidityLock)",
        "numberOfBytes": "32",
        "value": "t_struct(LiquidityLock)190_storage"
      },
      "t_struct(Counter)83_storage": {
        "encoding": "inplace",
        "label": "struct Counters.Counter",
        "members": [
          {
            "astId": 82,
            "contract": "contracts/LiquidityLocker.sol:LiquidityLocker",
            "label": "_value",
            "offset": 0,
            "slot": "0",
            "type": "t_uint256"
          }
        ],
        "numberOfBytes": "32"
      },
      "t_struct(LiquidityLock)190_storage": {
        "encoding": "inplace",
        "label": "struct LiquidityLocker.LiquidityLock",
        "members": [
          {
            "astId": 183,
            "contract": "contracts/LiquidityLocker.sol:LiquidityLocker",
            "label": "tokens",
            "offset": 0,
            "slot": "0",
            "type": "t_struct(Pair)169_storage"
          },
          {
            "astId": 185,
            "contract": "contracts/LiquidityLocker.sol:LiquidityLocker",
            "label": "liquidity",
            "offset": 0,
            "slot": "2",
            "type": "t_uint256"
          },
          {
            "astId": 187,
            "contract": "contracts/LiquidityLocker.sol:LiquidityLocker",
            "label": "unlocktime",
            "offset": 0,
            "slot": "3",
            "type": "t_uint256"
          },
          {
            "astId": 189,
            "contract": "contracts/LiquidityLocker.sol:LiquidityLocker",
            "label": "provider",
            "offset": 0,
            "slot": "4",
            "type": "t_address"
          }
        ],
        "numberOfBytes": "160"
      },
      "t_struct(Pair)169_storage": {
        "encoding": "inplace",
        "label": "struct LiquidityLocker.Pair",
        "members": [
          {
            "astId": 165,
            "contract": "contracts/LiquidityLocker.sol:LiquidityLocker",
            "label": "a",
            "offset": 0,
            "slot": "0",
            "type": "t_contract(IERC20)77"
          },
          {
            "astId": 168,
            "contract": "contracts/LiquidityLocker.sol:LiquidityLocker",
            "label": "b",
            "offset": 0,
            "slot": "1",
            "type": "t_contract(IERC20)77"
          }
        ],
        "numberOfBytes": "64"
      },
      "t_uint256": {
        "encoding": "inplace",
        "label": "uint256",
        "numberOfBytes": "32"
      }
    }
  }
}